{
  "contractName": "Blood",
  "abi": [
    {
      "inputs": [],
      "payable": false,
      "stateMutability": "nonpayable",
      "type": "constructor"
    },
    {
      "anonymous": false,
      "inputs": [
        {
          "indexed": false,
          "internalType": "uint256",
          "name": "id",
          "type": "uint256"
        },
        {
          "indexed": false,
          "internalType": "bool",
          "name": "used",
          "type": "bool"
        },
        {
          "indexed": false,
          "internalType": "bool",
          "name": "expired",
          "type": "bool"
        },
        {
          "indexed": false,
          "internalType": "uint256",
          "name": "donation_date",
          "type": "uint256"
        },
        {
          "indexed": false,
          "internalType": "address payable",
          "name": "donor",
          "type": "address"
        },
        {
          "indexed": false,
          "internalType": "address payable",
          "name": "bank",
          "type": "address"
        },
        {
          "indexed": false,
          "internalType": "string",
          "name": "blood_group",
          "type": "string"
        },
        {
          "indexed": false,
          "internalType": "uint256",
          "name": "expiry",
          "type": "uint256"
        },
        {
          "indexed": false,
          "internalType": "string",
          "name": "owner_name",
          "type": "string"
        },
        {
          "indexed": false,
          "internalType": "address payable",
          "name": "owner",
          "type": "address"
        },
        {
          "indexed": false,
          "internalType": "string",
          "name": "city",
          "type": "string"
        }
      ],
      "name": "BagCreated",
      "type": "event"
    },
    {
      "anonymous": false,
      "inputs": [
        {
          "indexed": false,
          "internalType": "uint256[]",
          "name": "array",
          "type": "uint256[]"
        }
      ],
      "name": "arr",
      "type": "event"
    },
    {
      "anonymous": false,
      "inputs": [
        {
          "indexed": false,
          "internalType": "uint256",
          "name": "id",
          "type": "uint256"
        },
        {
          "indexed": false,
          "internalType": "bool",
          "name": "used",
          "type": "bool"
        },
        {
          "indexed": false,
          "internalType": "bool",
          "name": "expired",
          "type": "bool"
        },
        {
          "indexed": false,
          "internalType": "uint256",
          "name": "donation_date",
          "type": "uint256"
        },
        {
          "indexed": false,
          "internalType": "address payable",
          "name": "donor",
          "type": "address"
        },
        {
          "indexed": false,
          "internalType": "address payable",
          "name": "bank",
          "type": "address"
        },
        {
          "indexed": false,
          "internalType": "string",
          "name": "blood_group",
          "type": "string"
        },
        {
          "indexed": false,
          "internalType": "uint256",
          "name": "expiry",
          "type": "uint256"
        },
        {
          "indexed": false,
          "internalType": "string",
          "name": "owner_name",
          "type": "string"
        },
        {
          "indexed": false,
          "internalType": "address payable",
          "name": "owner",
          "type": "address"
        },
        {
          "indexed": false,
          "internalType": "string",
          "name": "city",
          "type": "string"
        }
      ],
      "name": "bagPurchased",
      "type": "event"
    },
    {
      "anonymous": false,
      "inputs": [
        {
          "indexed": false,
          "internalType": "uint256",
          "name": "id",
          "type": "uint256"
        },
        {
          "indexed": false,
          "internalType": "bool",
          "name": "used",
          "type": "bool"
        },
        {
          "indexed": false,
          "internalType": "bool",
          "name": "expired",
          "type": "bool"
        },
        {
          "indexed": false,
          "internalType": "uint256",
          "name": "donation_date",
          "type": "uint256"
        },
        {
          "indexed": false,
          "internalType": "address payable",
          "name": "donor",
          "type": "address"
        },
        {
          "indexed": false,
          "internalType": "address payable",
          "name": "bank",
          "type": "address"
        },
        {
          "indexed": false,
          "internalType": "string",
          "name": "blood_group",
          "type": "string"
        },
        {
          "indexed": false,
          "internalType": "uint256",
          "name": "expiry",
          "type": "uint256"
        },
        {
          "indexed": false,
          "internalType": "string",
          "name": "owner_name",
          "type": "string"
        },
        {
          "indexed": false,
          "internalType": "address payable",
          "name": "owner",
          "type": "address"
        },
        {
          "indexed": false,
          "internalType": "string",
          "name": "city",
          "type": "string"
        }
      ],
      "name": "expBag",
      "type": "event"
    },
    {
      "anonymous": false,
      "inputs": [
        {
          "indexed": false,
          "internalType": "string",
          "name": "message",
          "type": "string"
        }
      ],
      "name": "message",
      "type": "event"
    },
    {
      "constant": true,
      "inputs": [],
      "name": "admin",
      "outputs": [
        {
          "internalType": "address payable",
          "name": "",
          "type": "address"
        }
      ],
      "payable": false,
      "stateMutability": "view",
      "type": "function"
    },
    {
      "constant": true,
      "inputs": [],
      "name": "bagCount",
      "outputs": [
        {
          "internalType": "uint256",
          "name": "",
          "type": "uint256"
        }
      ],
      "payable": false,
      "stateMutability": "view",
      "type": "function"
    },
    {
      "constant": true,
      "inputs": [
        {
          "internalType": "uint256",
          "name": "",
          "type": "uint256"
        }
      ],
      "name": "bloodbags",
      "outputs": [
        {
          "internalType": "uint256",
          "name": "id",
          "type": "uint256"
        },
        {
          "internalType": "bool",
          "name": "used",
          "type": "bool"
        },
        {
          "internalType": "bool",
          "name": "expired",
          "type": "bool"
        },
        {
          "internalType": "uint256",
          "name": "donation_date",
          "type": "uint256"
        },
        {
          "internalType": "address payable",
          "name": "donor",
          "type": "address"
        },
        {
          "internalType": "address payable",
          "name": "bank",
          "type": "address"
        },
        {
          "internalType": "string",
          "name": "blood_group",
          "type": "string"
        },
        {
          "internalType": "uint256",
          "name": "expiry",
          "type": "uint256"
        },
        {
          "internalType": "string",
          "name": "owner_name",
          "type": "string"
        },
        {
          "internalType": "address payable",
          "name": "owner",
          "type": "address"
        },
        {
          "internalType": "string",
          "name": "city",
          "type": "string"
        }
      ],
      "payable": false,
      "stateMutability": "view",
      "type": "function"
    },
    {
      "constant": true,
      "inputs": [
        {
          "internalType": "address",
          "name": "",
          "type": "address"
        },
        {
          "internalType": "uint256",
          "name": "",
          "type": "uint256"
        }
      ],
      "name": "donors",
      "outputs": [
        {
          "internalType": "uint256",
          "name": "",
          "type": "uint256"
        }
      ],
      "payable": false,
      "stateMutability": "view",
      "type": "function"
    },
    {
      "constant": true,
      "inputs": [],
      "name": "hospi",
      "outputs": [
        {
          "internalType": "address payable",
          "name": "",
          "type": "address"
        }
      ],
      "payable": false,
      "stateMutability": "view",
      "type": "function"
    },
    {
      "constant": true,
      "inputs": [
        {
          "internalType": "address",
          "name": "",
          "type": "address"
        },
        {
          "internalType": "uint256",
          "name": "",
          "type": "uint256"
        }
      ],
      "name": "hospitals",
      "outputs": [
        {
          "internalType": "uint256",
          "name": "",
          "type": "uint256"
        }
      ],
      "payable": false,
      "stateMutability": "view",
      "type": "function"
    },
    {
      "constant": true,
      "inputs": [],
      "name": "name",
      "outputs": [
        {
          "internalType": "string",
          "name": "",
          "type": "string"
        }
      ],
      "payable": false,
      "stateMutability": "view",
      "type": "function"
    },
    {
      "constant": true,
      "inputs": [
        {
          "internalType": "address",
          "name": "",
          "type": "address"
        },
        {
          "internalType": "uint256",
          "name": "",
          "type": "uint256"
        }
      ],
      "name": "notification",
      "outputs": [
        {
          "internalType": "uint256",
          "name": "",
          "type": "uint256"
        }
      ],
      "payable": false,
      "stateMutability": "view",
      "type": "function"
    },
    {
      "constant": true,
      "inputs": [],
      "name": "userCount",
      "outputs": [
        {
          "internalType": "uint256",
          "name": "",
          "type": "uint256"
        }
      ],
      "payable": false,
      "stateMutability": "view",
      "type": "function"
    },
    {
      "constant": true,
      "inputs": [
        {
          "internalType": "uint256",
          "name": "",
          "type": "uint256"
        }
      ],
      "name": "users",
      "outputs": [
        {
          "internalType": "uint256",
          "name": "id",
          "type": "uint256"
        },
        {
          "internalType": "uint256",
          "name": "user_type",
          "type": "uint256"
        },
        {
          "internalType": "string",
          "name": "user",
          "type": "string"
        },
        {
          "internalType": "address payable",
          "name": "user_address",
          "type": "address"
        },
        {
          "internalType": "string",
          "name": "name",
          "type": "string"
        },
        {
          "internalType": "string",
          "name": "number",
          "type": "string"
        },
        {
          "internalType": "string",
          "name": "blood_group",
          "type": "string"
        },
        {
          "internalType": "string",
          "name": "city",
          "type": "string"
        }
      ],
      "payable": false,
      "stateMutability": "view",
      "type": "function"
    },
    {
      "constant": true,
      "inputs": [
        {
          "internalType": "address",
          "name": "",
          "type": "address"
        }
      ],
      "name": "usertype",
      "outputs": [
        {
          "internalType": "uint256",
          "name": "id",
          "type": "uint256"
        },
        {
          "internalType": "uint256",
          "name": "user_type",
          "type": "uint256"
        },
        {
          "internalType": "string",
          "name": "user",
          "type": "string"
        },
        {
          "internalType": "address payable",
          "name": "user_address",
          "type": "address"
        },
        {
          "internalType": "string",
          "name": "name",
          "type": "string"
        },
        {
          "internalType": "string",
          "name": "number",
          "type": "string"
        },
        {
          "internalType": "string",
          "name": "blood_group",
          "type": "string"
        },
        {
          "internalType": "string",
          "name": "city",
          "type": "string"
        }
      ],
      "payable": false,
      "stateMutability": "view",
      "type": "function"
    },
    {
      "constant": true,
      "inputs": [
        {
          "internalType": "address payable",
          "name": "_donor",
          "type": "address"
        }
      ],
      "name": "getDbags",
      "outputs": [
        {
          "internalType": "uint256[]",
          "name": "",
          "type": "uint256[]"
        }
      ],
      "payable": false,
      "stateMutability": "view",
      "type": "function"
    },
    {
      "constant": true,
      "inputs": [
        {
          "internalType": "address payable",
          "name": "_donor",
          "type": "address"
        }
      ],
      "name": "getNotification",
      "outputs": [
        {
          "internalType": "uint256[]",
          "name": "",
          "type": "uint256[]"
        }
      ],
      "payable": false,
      "stateMutability": "view",
      "type": "function"
    },
    {
      "constant": true,
      "inputs": [
        {
          "internalType": "address payable",
          "name": "_hospital",
          "type": "address"
        }
      ],
      "name": "getHbags",
      "outputs": [
        {
          "internalType": "uint256[]",
          "name": "",
          "type": "uint256[]"
        }
      ],
      "payable": false,
      "stateMutability": "view",
      "type": "function"
    },
    {
      "constant": false,
      "inputs": [
        {
          "internalType": "uint256",
          "name": "_donation_date",
          "type": "uint256"
        },
        {
          "internalType": "address payable",
          "name": "_donor",
          "type": "address"
        },
        {
          "internalType": "string",
          "name": "_donor_name",
          "type": "string"
        },
        {
          "internalType": "string",
          "name": "_donor_number",
          "type": "string"
        },
        {
          "internalType": "string",
          "name": "_blood_group",
          "type": "string"
        },
        {
          "internalType": "uint256",
          "name": "_expiry",
          "type": "uint256"
        },
        {
          "internalType": "string",
          "name": "_city",
          "type": "string"
        }
      ],
      "name": "createBloodbag",
      "outputs": [],
      "payable": false,
      "stateMutability": "nonpayable",
      "type": "function"
    },
    {
      "constant": false,
      "inputs": [
        {
          "internalType": "address payable",
          "name": "_bank",
          "type": "address"
        },
        {
          "internalType": "string",
          "name": "_name",
          "type": "string"
        },
        {
          "internalType": "string",
          "name": "_city",
          "type": "string"
        }
      ],
      "name": "createBank",
      "outputs": [],
      "payable": false,
      "stateMutability": "nonpayable",
      "type": "function"
    },
    {
      "constant": false,
      "inputs": [
        {
          "internalType": "address payable",
          "name": "_hosp",
          "type": "address"
        },
        {
          "internalType": "string",
          "name": "_name",
          "type": "string"
        },
        {
          "internalType": "string",
          "name": "_city",
          "type": "string"
        }
      ],
      "name": "createHosp",
      "outputs": [],
      "payable": false,
      "stateMutability": "nonpayable",
      "type": "function"
    },
    {
      "constant": false,
      "inputs": [
        {
          "internalType": "uint256",
          "name": "bag_id",
          "type": "uint256"
        }
      ],
      "name": "h_placeOrder",
      "outputs": [],
      "payable": true,
      "stateMutability": "payable",
      "type": "function"
    },
    {
      "constant": false,
      "inputs": [
        {
          "internalType": "uint256",
          "name": "bag_id",
          "type": "uint256"
        }
      ],
      "name": "useBag",
      "outputs": [],
      "payable": false,
      "stateMutability": "nonpayable",
      "type": "function"
    },
    {
      "constant": false,
      "inputs": [],
      "name": "gotIt",
      "outputs": [],
      "payable": false,
      "stateMutability": "nonpayable",
      "type": "function"
    },
    {
      "constant": false,
      "inputs": [
        {
          "internalType": "uint256[]",
          "name": "ids",
          "type": "uint256[]"
        },
        {
          "internalType": "uint256",
          "name": "s",
          "type": "uint256"
        }
      ],
      "name": "expiredBag",
      "outputs": [
        {
          "internalType": "uint256",
          "name": "",
          "type": "uint256"
        }
      ],
      "payable": false,
      "stateMutability": "nonpayable",
      "type": "function"
    }
  ],
  "bytecode": "0x60806040527374b6aceba25a317cbb21e46146693a139332a7c66000806101000a81548173ffffffffffffffffffffffffffffffffffffffff021916908373ffffffffffffffffffffffffffffffffffffffff16021790555073519656b8a37d2c6f5b8022fef151f6a4e871b9ce600160006101000a81548173ffffffffffffffffffffffffffffffffffffffff021916908373ffffffffffffffffffffffffffffffffffffffff16021790555060006003556000600455348015620000c457600080fd5b506040518060400160405280600a81526020017f5072616e617620476f72000000000000000000000000000000000000000000008152506002908051906020019062000112929190620005f4565b506004600081548092919060010191905055506040518061010001604052806004548152602001600e81526020016040518060400160405280600581526020017f41646d696e00000000000000000000000000000000000000000000000000000081525081526020016000809054906101000a900473ffffffffffffffffffffffffffffffffffffffff1673ffffffffffffffffffffffffffffffffffffffff1681526020016040518060400160405280601381526020017f4d7568616d6d61642041616d6972204b68616e0000000000000000000000000081525081526020016040518060200160405280600081525081526020016040518060200160405280600081525081526020016040518060400160405280601081526020017f446572612049736d61696c204b68616e00000000000000000000000000000000815250815250600860008060009054906101000a900473ffffffffffffffffffffffffffffffffffffffff1673ffffffffffffffffffffffffffffffffffffffff1673ffffffffffffffffffffffffffffffffffffffff16815260200190815260200160002060008201518160000155602082015181600101556040820151816002019080519060200190620002e89291906200067b565b5060608201518160030160006101000a81548173ffffffffffffffffffffffffffffffffffffffff021916908373ffffffffffffffffffffffffffffffffffffffff16021790555060808201518160040190805190602001906200034e9291906200067b565b5060a08201518160050190805190602001906200036d9291906200067b565b5060c08201518160060190805190602001906200038c9291906200067b565b5060e0820151816007019080519060200190620003ab9291906200067b565b509050506040518061010001604052806004548152602001600e81526020016040518060400160405280600581526020017f41646d696e00000000000000000000000000000000000000000000000000000081525081526020016000809054906101000a900473ffffffffffffffffffffffffffffffffffffffff1673ffffffffffffffffffffffffffffffffffffffff1681526020016040518060400160405280601381526020017f4d7568616d6d61642041616d6972204b68616e0000000000000000000000000081525081526020016040518060200160405280600081525081526020016040518060200160405280600081525081526020016040518060400160405280601081526020017f446572612049736d61696c204b68616e00000000000000000000000000000000815250815250600a6000600454815260200190815260200160002060008201518160000155602082015181600101556040820151816002019080519060200190620005279291906200067b565b5060608201518160030160006101000a81548173ffffffffffffffffffffffffffffffffffffffff021916908373ffffffffffffffffffffffffffffffffffffffff16021790555060808201518160040190805190602001906200058d9291906200067b565b5060a0820151816005019080519060200190620005ac9291906200067b565b5060c0820151816006019080519060200190620005cb9291906200067b565b5060e0820151816007019080519060200190620005ea9291906200067b565b509050506200072a565b828054600181600116156101000203166002900490600052602060002090601f016020900481019282601f106200063757805160ff191683800117855562000668565b8280016001018555821562000668579182015b82811115620006675782518255916020019190600101906200064a565b5b50905062000677919062000702565b5090565b828054600181600116156101000203166002900490600052602060002090601f016020900481019282601f10620006be57805160ff1916838001178555620006ef565b82800160010185558215620006ef579182015b82811115620006ee578251825591602001919060010190620006d1565b5b509050620006fe919062000702565b5090565b6200072791905b808211156200072357600081600090555060010162000709565b5090565b90565b615407806200073a6000396000f3fe60806040526004361061012a5760003560e01c806389a57f8e116100ab578063bd6ea2741161006f578063bd6ea27414610e7c578063e8c880b414610e93578063f0e9955e14610ebe578063f851a4401461103d578063fb7d942914611094578063fbe6f2e1146113555761012a565b806389a57f8e14610bac5780639715afe114610c525780639b56f5f014610cc1578063aabd2eb214610d30578063ab2d4ebd14610dd65761012a565b80634309e4c6116100f25780634309e4c6146107855780634ea0738f146109d557806376147a0e14610a0357806379025c3a14610a7257806386f1daa714610b555761012a565b806306fdde031461012f57806307973ccf146101bf5780630a752b87146101ea5780633164582e14610225578063365b98b2146104e0575b600080fd5b34801561013b57600080fd5b506101446114d4565b6040518080602001828103825283818151815260200191508051906020019080838360005b83811015610184578082015181840152602081019050610169565b50505050905090810190601f1680156101b15780820380516001836020036101000a031916815260200191505b509250505060405180910390f35b3480156101cb57600080fd5b506101d4611572565b6040518082815260200191505060405180910390f35b3480156101f657600080fd5b506102236004803603602081101561020d57600080fd5b8101908080359060200190929190505050611578565b005b34801561023157600080fd5b506102746004803603602081101561024857600080fd5b81019080803573ffffffffffffffffffffffffffffffffffffffff169060200190929190505050611719565b60405180898152602001888152602001806020018773ffffffffffffffffffffffffffffffffffffffff1673ffffffffffffffffffffffffffffffffffffffff1681526020018060200180602001806020018060200186810386528c818151815260200191508051906020019080838360005b838110156103025780820151818401526020810190506102e7565b50505050905090810190601f16801561032f5780820380516001836020036101000a031916815260200191505b5086810385528a818151815260200191508051906020019080838360005b8381101561036857808201518184015260208101905061034d565b50505050905090810190601f1680156103955780820380516001836020036101000a031916815260200191505b50868103845289818151815260200191508051906020019080838360005b838110156103ce5780820151818401526020810190506103b3565b50505050905090810190601f1680156103fb5780820380516001836020036101000a031916815260200191505b50868103835288818151815260200191508051906020019080838360005b83811015610434578082015181840152602081019050610419565b50505050905090810190601f1680156104615780820380516001836020036101000a031916815260200191505b50868103825287818151815260200191508051906020019080838360005b8381101561049a57808201518184015260208101905061047f565b50505050905090810190601f1680156104c75780820380516001836020036101000a031916815260200191505b509d505050505050505050505050505060405180910390f35b3480156104ec57600080fd5b506105196004803603602081101561050357600080fd5b8101908080359060200190929190505050611a79565b60405180898152602001888152602001806020018773ffffffffffffffffffffffffffffffffffffffff1673ffffffffffffffffffffffffffffffffffffffff1681526020018060200180602001806020018060200186810386528c818151815260200191508051906020019080838360005b838110156105a757808201518184015260208101905061058c565b50505050905090810190601f1680156105d45780820380516001836020036101000a031916815260200191505b5086810385528a818151815260200191508051906020019080838360005b8381101561060d5780820151818401526020810190506105f2565b50505050905090810190601f16801561063a5780820380516001836020036101000a031916815260200191505b50868103845289818151815260200191508051906020019080838360005b83811015610673578082015181840152602081019050610658565b50505050905090810190601f1680156106a05780820380516001836020036101000a031916815260200191505b50868103835288818151815260200191508051906020019080838360005b838110156106d95780820151818401526020810190506106be565b50505050905090810190601f1680156107065780820380516001836020036101000a031916815260200191505b50868103825287818151815260200191508051906020019080838360005b8381101561073f578082015181840152602081019050610724565b50505050905090810190601f16801561076c5780820380516001836020036101000a031916815260200191505b509d505050505050505050505050505060405180910390f35b34801561079157600080fd5b506107be600480360360208110156107a857600080fd5b8101908080359060200190929190505050611dd9565b604051808c81526020018b1515151581526020018a1515151581526020018981526020018873ffffffffffffffffffffffffffffffffffffffff1673ffffffffffffffffffffffffffffffffffffffff1681526020018773ffffffffffffffffffffffffffffffffffffffff1673ffffffffffffffffffffffffffffffffffffffff16815260200180602001868152602001806020018573ffffffffffffffffffffffffffffffffffffffff1673ffffffffffffffffffffffffffffffffffffffff16815260200180602001848103845289818151815260200191508051906020019080838360005b838110156108c25780820151818401526020810190506108a7565b50505050905090810190601f1680156108ef5780820380516001836020036101000a031916815260200191505b50848103835287818151815260200191508051906020019080838360005b8381101561092857808201518184015260208101905061090d565b50505050905090810190601f1680156109555780820380516001836020036101000a031916815260200191505b50848103825285818151815260200191508051906020019080838360005b8381101561098e578082015181840152602081019050610973565b50505050905090810190601f1680156109bb5780820380516001836020036101000a031916815260200191505b509e50505050505050505050505050505060405180910390f35b610a01600480360360208110156109eb57600080fd5b8101908080359060200190929190505050612075565b005b348015610a0f57600080fd5b50610a5c60048036036040811015610a2657600080fd5b81019080803573ffffffffffffffffffffffffffffffffffffffff169060200190929190803590602001909291905050506129df565b6040518082815260200191505060405180910390f35b348015610a7e57600080fd5b50610b3f60048036036040811015610a9557600080fd5b8101908080359060200190640100000000811115610ab257600080fd5b820183602082011115610ac457600080fd5b80359060200191846020830284011164010000000083111715610ae657600080fd5b919080806020026020016040519081016040528093929190818152602001838360200280828437600081840152601f19601f82011690508083019250505050505050919291929080359060200190929190505050612a0d565b6040518082815260200191505060405180910390f35b348015610b6157600080fd5b50610b6a6131b4565b604051808273ffffffffffffffffffffffffffffffffffffffff1673ffffffffffffffffffffffffffffffffffffffff16815260200191505060405180910390f35b348015610bb857600080fd5b50610bfb60048036036020811015610bcf57600080fd5b81019080803573ffffffffffffffffffffffffffffffffffffffff1690602001909291905050506131da565b6040518080602001828103825283818151815260200191508051906020019060200280838360005b83811015610c3e578082015181840152602081019050610c23565b505050509050019250505060405180910390f35b348015610c5e57600080fd5b50610cab60048036036040811015610c7557600080fd5b81019080803573ffffffffffffffffffffffffffffffffffffffff16906020019092919080359060200190929190505050613271565b6040518082815260200191505060405180910390f35b348015610ccd57600080fd5b50610d1a60048036036040811015610ce457600080fd5b81019080803573ffffffffffffffffffffffffffffffffffffffff1690602001909291908035906020019092919050505061329f565b6040518082815260200191505060405180910390f35b348015610d3c57600080fd5b50610d7f60048036036020811015610d5357600080fd5b81019080803573ffffffffffffffffffffffffffffffffffffffff1690602001909291905050506132cd565b6040518080602001828103825283818151815260200191508051906020019060200280838360005b83811015610dc2578082015181840152602081019050610da7565b505050509050019250505060405180910390f35b348015610de257600080fd5b50610e2560048036036020811015610df957600080fd5b81019080803573ffffffffffffffffffffffffffffffffffffffff169060200190929190505050613364565b6040518080602001828103825283818151815260200191508051906020019060200280838360005b83811015610e68578082015181840152602081019050610e4d565b505050509050019250505060405180910390f35b348015610e8857600080fd5b50610e916133fb565b005b348015610e9f57600080fd5b50610ea86134e5565b6040518082815260200191505060405180910390f35b348015610eca57600080fd5b5061103b60048036036060811015610ee157600080fd5b81019080803573ffffffffffffffffffffffffffffffffffffffff16906020019092919080359060200190640100000000811115610f1e57600080fd5b820183602082011115610f3057600080fd5b80359060200191846001830284011164010000000083111715610f5257600080fd5b91908080601f016020809104026020016040519081016040528093929190818152602001838380828437600081840152601f19601f82011690508083019250505050505050919291929080359060200190640100000000811115610fb557600080fd5b820183602082011115610fc757600080fd5b80359060200191846001830284011164010000000083111715610fe957600080fd5b91908080601f016020809104026020016040519081016040528093929190818152602001838380828437600081840152601f19601f8201169050808301925050505050505091929192905050506134eb565b005b34801561104957600080fd5b50611052613b8c565b604051808273ffffffffffffffffffffffffffffffffffffffff1673ffffffffffffffffffffffffffffffffffffffff16815260200191505060405180910390f35b3480156110a057600080fd5b50611353600480360360e08110156110b757600080fd5b8101908080359060200190929190803573ffffffffffffffffffffffffffffffffffffffff169060200190929190803590602001906401000000008111156110fe57600080fd5b82018360208201111561111057600080fd5b8035906020019184600183028401116401000000008311171561113257600080fd5b91908080601f016020809104026020016040519081016040528093929190818152602001838380828437600081840152601f19601f8201169050808301925050505050505091929192908035906020019064010000000081111561119557600080fd5b8201836020820111156111a757600080fd5b803590602001918460018302840111640100000000831117156111c957600080fd5b91908080601f016020809104026020016040519081016040528093929190818152602001838380828437600081840152601f19601f8201169050808301925050505050505091929192908035906020019064010000000081111561122c57600080fd5b82018360208201111561123e57600080fd5b8035906020019184600183028401116401000000008311171561126057600080fd5b91908080601f016020809104026020016040519081016040528093929190818152602001838380828437600081840152601f19601f82011690508083019250505050505050919291929080359060200190929190803590602001906401000000008111156112cd57600080fd5b8201836020820111156112df57600080fd5b8035906020019184600183028401116401000000008311171561130157600080fd5b91908080601f016020809104026020016040519081016040528093929190818152602001838380828437600081840152601f19601f820116905080830192505050505050509192919290505050613bb1565b005b34801561136157600080fd5b506114d26004803603606081101561137857600080fd5b81019080803573ffffffffffffffffffffffffffffffffffffffff169060200190929190803590602001906401000000008111156113b557600080fd5b8201836020820111156113c757600080fd5b803590602001918460018302840111640100000000831117156113e957600080fd5b91908080601f016020809104026020016040519081016040528093929190818152602001838380828437600081840152601f19601f8201169050808301925050505050505091929192908035906020019064010000000081111561144c57600080fd5b82018360208201111561145e57600080fd5b8035906020019184600183028401116401000000008311171561148057600080fd5b91908080601f016020809104026020016040519081016040528093929190818152602001838380828437600081840152601f19601f820116905080830192505050505050509192919290505050614b16565b005b60028054600181600116156101000203166002900480601f01602080910402602001604051908101604052809291908181526020018280546001816001161561010002031660029004801561156a5780601f1061153f5761010080835404028352916020019161156a565b820191906000526020600020905b81548152906001019060200180831161154d57829003601f168201915b505050505081565b60045481565b6003600860003373ffffffffffffffffffffffffffffffffffffffff1673ffffffffffffffffffffffffffffffffffffffff1681526020019081526020016000206001015414611613576040517f08c379a00000000000000000000000000000000000000000000000000000000081526004018080602001828103825260238152602001806153b06023913960400191505060405180910390fd5b60016005600083815260200190815260200160002060010160006101000a81548160ff02191690831515021790555060006005600083815260200190815260200160002060010160016101000a81548160ff02191690831515021790555060006005600083815260200190815260200160002060030160009054906101000a900473ffffffffffffffffffffffffffffffffffffffff169050600960008273ffffffffffffffffffffffffffffffffffffffff1673ffffffffffffffffffffffffffffffffffffffff1681526020019081526020016000208290806001815401808255809150509060018203906000526020600020016000909192909190915055505050565b6008602052806000526040600020600091509050806000015490806001015490806002018054600181600116156101000203166002900480601f0160208091040260200160405190810160405280929190818152602001828054600181600116156101000203166002900480156117d15780601f106117a6576101008083540402835291602001916117d1565b820191906000526020600020905b8154815290600101906020018083116117b457829003601f168201915b5050505050908060030160009054906101000a900473ffffffffffffffffffffffffffffffffffffffff1690806004018054600181600116156101000203166002900480601f0160208091040260200160405190810160405280929190818152602001828054600181600116156101000203166002900480156118955780601f1061186a57610100808354040283529160200191611895565b820191906000526020600020905b81548152906001019060200180831161187857829003601f168201915b505050505090806005018054600181600116156101000203166002900480601f0160208091040260200160405190810160405280929190818152602001828054600181600116156101000203166002900480156119335780601f1061190857610100808354040283529160200191611933565b820191906000526020600020905b81548152906001019060200180831161191657829003601f168201915b505050505090806006018054600181600116156101000203166002900480601f0160208091040260200160405190810160405280929190818152602001828054600181600116156101000203166002900480156119d15780601f106119a6576101008083540402835291602001916119d1565b820191906000526020600020905b8154815290600101906020018083116119b457829003601f168201915b505050505090806007018054600181600116156101000203166002900480601f016020809104026020016040519081016040528092919081815260200182805460018160011615610100020316600290048015611a6f5780601f10611a4457610100808354040283529160200191611a6f565b820191906000526020600020905b815481529060010190602001808311611a5257829003601f168201915b5050505050905088565b600a602052806000526040600020600091509050806000015490806001015490806002018054600181600116156101000203166002900480601f016020809104026020016040519081016040528092919081815260200182805460018160011615610100020316600290048015611b315780601f10611b0657610100808354040283529160200191611b31565b820191906000526020600020905b815481529060010190602001808311611b1457829003601f168201915b5050505050908060030160009054906101000a900473ffffffffffffffffffffffffffffffffffffffff1690806004018054600181600116156101000203166002900480601f016020809104026020016040519081016040528092919081815260200182805460018160011615610100020316600290048015611bf55780601f10611bca57610100808354040283529160200191611bf5565b820191906000526020600020905b815481529060010190602001808311611bd857829003601f168201915b505050505090806005018054600181600116156101000203166002900480601f016020809104026020016040519081016040528092919081815260200182805460018160011615610100020316600290048015611c935780601f10611c6857610100808354040283529160200191611c93565b820191906000526020600020905b815481529060010190602001808311611c7657829003601f168201915b505050505090806006018054600181600116156101000203166002900480601f016020809104026020016040519081016040528092919081815260200182805460018160011615610100020316600290048015611d315780601f10611d0657610100808354040283529160200191611d31565b820191906000526020600020905b815481529060010190602001808311611d1457829003601f168201915b505050505090806007018054600181600116156101000203166002900480601f016020809104026020016040519081016040528092919081815260200182805460018160011615610100020316600290048015611dcf5780601f10611da457610100808354040283529160200191611dcf565b820191906000526020600020905b815481529060010190602001808311611db257829003601f168201915b5050505050905088565b60056020528060005260406000206000915090508060000154908060010160009054906101000a900460ff16908060010160019054906101000a900460ff16908060020154908060030160009054906101000a900473ffffffffffffffffffffffffffffffffffffffff16908060040160009054906101000a900473ffffffffffffffffffffffffffffffffffffffff1690806005018054600181600116156101000203166002900480601f016020809104026020016040519081016040528092919081815260200182805460018160011615610100020316600290048015611f035780601f10611ed857610100808354040283529160200191611f03565b820191906000526020600020905b815481529060010190602001808311611ee657829003601f168201915b505050505090806006015490806007018054600181600116156101000203166002900480601f016020809104026020016040519081016040528092919081815260200182805460018160011615610100020316600290048015611fa75780601f10611f7c57610100808354040283529160200191611fa7565b820191906000526020600020905b815481529060010190602001808311611f8a57829003601f168201915b5050505050908060080160009054906101000a900473ffffffffffffffffffffffffffffffffffffffff1690806009018054600181600116156101000203166002900480601f01602080910402602001604051908101604052809291908181526020018280546001816001161561010002031660029004801561206b5780601f106120405761010080835404028352916020019161206b565b820191906000526020600020905b81548152906001019060200180831161204e57829003601f168201915b505050505090508b565b60006005600083815260200190815260200160002060080160009054906101000a900473ffffffffffffffffffffffffffffffffffffffff16905060006005600084815260200190815260200160002060010160009054906101000a900460ff16905060006005600085815260200190815260200160002060010160019054906101000a900460ff16905060013411612176576040517f08c379a00000000000000000000000000000000000000000000000000000000081526004018080602001828103825260108152602001807f57726f6e6720707269636520706169640000000000000000000000000000000081525060200191505060405180910390fd5b6003600860003373ffffffffffffffffffffffffffffffffffffffff1673ffffffffffffffffffffffffffffffffffffffff1681526020019081526020016000206001015414612211576040517f08c379a00000000000000000000000000000000000000000000000000000000081526004018080602001828103825260238152602001806153b06023913960400191505060405180910390fd5b8273ffffffffffffffffffffffffffffffffffffffff166108fc349081150290604051600060405180830381858888f19350505050158015612257573d6000803e3d6000fd5b50336005600086815260200190815260200160002060080160006101000a81548173ffffffffffffffffffffffffffffffffffffffff021916908373ffffffffffffffffffffffffffffffffffffffff160217905550600860003373ffffffffffffffffffffffffffffffffffffffff1673ffffffffffffffffffffffffffffffffffffffff1681526020019081526020016000206004016005600086815260200190815260200160002060070190805460018160011615610100020316600290046123249291906151b7565b50600860003373ffffffffffffffffffffffffffffffffffffffff1673ffffffffffffffffffffffffffffffffffffffff16815260200190815260200160002060070160056000868152602001908152602001600020600901908054600181600116156101000203166002900461239c9291906151b7565b506123a561523e565b6005600086815260200190815260200160002060405180610160016040529081600082015481526020016001820160009054906101000a900460ff161515151581526020016001820160019054906101000a900460ff16151515158152602001600282015481526020016003820160009054906101000a900473ffffffffffffffffffffffffffffffffffffffff1673ffffffffffffffffffffffffffffffffffffffff1673ffffffffffffffffffffffffffffffffffffffff1681526020016004820160009054906101000a900473ffffffffffffffffffffffffffffffffffffffff1673ffffffffffffffffffffffffffffffffffffffff1673ffffffffffffffffffffffffffffffffffffffff168152602001600582018054600181600116156101000203166002900480601f0160208091040260200160405190810160405280929190818152602001828054600181600116156101000203166002900480156125535780601f1061252857610100808354040283529160200191612553565b820191906000526020600020905b81548152906001019060200180831161253657829003601f168201915b5050505050815260200160068201548152602001600782018054600181600116156101000203166002900480601f0160208091040260200160405190810160405280929190818152602001828054600181600116156101000203166002900480156125ff5780601f106125d4576101008083540402835291602001916125ff565b820191906000526020600020905b8154815290600101906020018083116125e257829003601f168201915b505050505081526020016008820160009054906101000a900473ffffffffffffffffffffffffffffffffffffffff1673ffffffffffffffffffffffffffffffffffffffff1673ffffffffffffffffffffffffffffffffffffffff168152602001600982018054600181600116156101000203166002900480601f0160208091040260200160405190810160405280929190818152602001828054600181600116156101000203166002900480156126f75780601f106126cc576101008083540402835291602001916126f7565b820191906000526020600020905b8154815290600101906020018083116126da57829003601f168201915b5050505050815250509050600760003373ffffffffffffffffffffffffffffffffffffffff1673ffffffffffffffffffffffffffffffffffffffff168152602001908152602001600020816000015190806001815401808255809150509060018203906000526020600020016000909192909190915055507f70b58516acd4274e66d2d03c6417d4a154f3504ff2ded89a839cb2591544b90481600001518484846060015185608001518660a001518760c001518860e001518961010001518a61012001518b6101400151604051808c81526020018b1515151581526020018a1515151581526020018981526020018873ffffffffffffffffffffffffffffffffffffffff1673ffffffffffffffffffffffffffffffffffffffff1681526020018773ffffffffffffffffffffffffffffffffffffffff1673ffffffffffffffffffffffffffffffffffffffff16815260200180602001868152602001806020018573ffffffffffffffffffffffffffffffffffffffff1673ffffffffffffffffffffffffffffffffffffffff16815260200180602001848103845289818151815260200191508051906020019080838360005b838110156128c65780820151818401526020810190506128ab565b50505050905090810190601f1680156128f35780820380516001836020036101000a031916815260200191505b50848103835287818151815260200191508051906020019080838360005b8381101561292c578082015181840152602081019050612911565b50505050905090810190601f1680156129595780820380516001836020036101000a031916815260200191505b50848103825285818151815260200191508051906020019080838360005b83811015612992578082015181840152602081019050612977565b50505050905090810190601f1680156129bf5780820380516001836020036101000a031916815260200191505b509e50505050505050505050505050505060405180910390a15050505050565b600960205281600052604060002081815481106129f857fe5b90600052602060002001600091509150505481565b6000600e600860003373ffffffffffffffffffffffffffffffffffffffff1673ffffffffffffffffffffffffffffffffffffffff1681526020019081526020016000206001015414612aaa576040517f08c379a00000000000000000000000000000000000000000000000000000000081526004018080602001828103825260238152602001806153b06023913960400191505060405180910390fd5b6000821415612b21576040517f08c379a000000000000000000000000000000000000000000000000000000000815260040180806020018281038252600f8152602001807f4e6f20457870697265642062616773000000000000000000000000000000000081525060200191505060405180910390fd5b612b2961523e565b60008090505b838110156131a957600160056000878481518110612b4957fe5b6020026020010151815260200190815260200160002060010160016101000a81548160ff021916908315150217905550600060056000878481518110612b8b57fe5b6020026020010151815260200190815260200160002060010160006101000a81548160ff02191690831515021790555060056000868381518110612bcb57fe5b6020026020010151815260200190815260200160002060405180610160016040529081600082015481526020016001820160009054906101000a900460ff161515151581526020016001820160019054906101000a900460ff16151515158152602001600282015481526020016003820160009054906101000a900473ffffffffffffffffffffffffffffffffffffffff1673ffffffffffffffffffffffffffffffffffffffff1673ffffffffffffffffffffffffffffffffffffffff1681526020016004820160009054906101000a900473ffffffffffffffffffffffffffffffffffffffff1673ffffffffffffffffffffffffffffffffffffffff1673ffffffffffffffffffffffffffffffffffffffff168152602001600582018054600181600116156101000203166002900480601f016020809104026020016040519081016040528092919081815260200182805460018160011615610100020316600290048015612d7c5780601f10612d5157610100808354040283529160200191612d7c565b820191906000526020600020905b815481529060010190602001808311612d5f57829003601f168201915b5050505050815260200160068201548152602001600782018054600181600116156101000203166002900480601f016020809104026020016040519081016040528092919081815260200182805460018160011615610100020316600290048015612e285780601f10612dfd57610100808354040283529160200191612e28565b820191906000526020600020905b815481529060010190602001808311612e0b57829003601f168201915b505050505081526020016008820160009054906101000a900473ffffffffffffffffffffffffffffffffffffffff1673ffffffffffffffffffffffffffffffffffffffff1673ffffffffffffffffffffffffffffffffffffffff168152602001600982018054600181600116156101000203166002900480601f016020809104026020016040519081016040528092919081815260200182805460018160011615610100020316600290048015612f205780601f10612ef557610100808354040283529160200191612f20565b820191906000526020600020905b815481529060010190602001808311612f0357829003601f168201915b50505050508152505091507fce038f74c8a3e3448a9a450dc7e0eb04d3e64f37b95ac4ccbf8af13ad2c0ddca826000015183602001518460400151856060015186608001518760a001518860c001518960e001518a61010001518b61012001518c6101400151604051808c81526020018b1515151581526020018a1515151581526020018981526020018873ffffffffffffffffffffffffffffffffffffffff1673ffffffffffffffffffffffffffffffffffffffff1681526020018773ffffffffffffffffffffffffffffffffffffffff1673ffffffffffffffffffffffffffffffffffffffff16815260200180602001868152602001806020018573ffffffffffffffffffffffffffffffffffffffff1673ffffffffffffffffffffffffffffffffffffffff16815260200180602001848103845289818151815260200191508051906020019080838360005b8381101561308a57808201518184015260208101905061306f565b50505050905090810190601f1680156130b75780820380516001836020036101000a031916815260200191505b50848103835287818151815260200191508051906020019080838360005b838110156130f05780820151818401526020810190506130d5565b50505050905090810190601f16801561311d5780820380516001836020036101000a031916815260200191505b50848103825285818151815260200191508051906020019080838360005b8381101561315657808201518184015260208101905061313b565b50505050905090810190601f1680156131835780820380516001836020036101000a031916815260200191505b509e50505050505050505050505050505060405180910390a18080600101915050612b2f565b508291505092915050565b600160009054906101000a900473ffffffffffffffffffffffffffffffffffffffff1681565b6060600960008373ffffffffffffffffffffffffffffffffffffffff1673ffffffffffffffffffffffffffffffffffffffff16815260200190815260200160002080548060200260200160405190810160405280929190818152602001828054801561326557602002820191906000526020600020905b815481526020019060010190808311613251575b50505050509050919050565b6007602052816000526040600020818154811061328a57fe5b90600052602060002001600091509150505481565b600660205281600052604060002081815481106132b857fe5b90600052602060002001600091509150505481565b6060600760008373ffffffffffffffffffffffffffffffffffffffff1673ffffffffffffffffffffffffffffffffffffffff16815260200190815260200160002080548060200260200160405190810160405280929190818152602001828054801561335857602002820191906000526020600020905b815481526020019060010190808311613344575b50505050509050919050565b6060600660008373ffffffffffffffffffffffffffffffffffffffff1673ffffffffffffffffffffffffffffffffffffffff1681526020019081526020016000208054806020026020016040519081016040528092919081815260200182805480156133ef57602002820191906000526020600020905b8154815260200190600101908083116133db575b50505050509050919050565b6001600860003373ffffffffffffffffffffffffffffffffffffffff1673ffffffffffffffffffffffffffffffffffffffff1681526020019081526020016000206001015414613496576040517f08c379a00000000000000000000000000000000000000000000000000000000081526004018080602001828103825260238152602001806153b06023913960400191505060405180910390fd5b6000600960003373ffffffffffffffffffffffffffffffffffffffff1673ffffffffffffffffffffffffffffffffffffffff168152602001908152602001600020816134e291906152de565b50565b60035481565b6000809054906101000a900473ffffffffffffffffffffffffffffffffffffffff1673ffffffffffffffffffffffffffffffffffffffff163373ffffffffffffffffffffffffffffffffffffffff16146135ad576040517f08c379a000000000000000000000000000000000000000000000000000000000815260040180806020018281038252600c8152602001807f4e6f7420616e2061646d696e000000000000000000000000000000000000000081525060200191505060405180910390fd5b600073ffffffffffffffffffffffffffffffffffffffff168373ffffffffffffffffffffffffffffffffffffffff161415613650576040517f08c379a000000000000000000000000000000000000000000000000000000000815260040180806020018281038252600f8152602001807f4e6f2062616e6b2061646472657373000000000000000000000000000000000081525060200191505060405180910390fd5b60008251116136c7576040517f08c379a00000000000000000000000000000000000000000000000000000000081526004018080602001828103825260178152602001807f506c6573652070726f766964652042616e6b206e616d6500000000000000000081525060200191505060405180910390fd5b600081511161373e576040517f08c379a00000000000000000000000000000000000000000000000000000000081526004018080602001828103825260178152602001807f506c6573652070726f766964652043697479206e616d6500000000000000000081525060200191505060405180910390fd5b6002600860008573ffffffffffffffffffffffffffffffffffffffff1673ffffffffffffffffffffffffffffffffffffffff1681526020019081526020016000206001015414156137f7576040517f08c379a00000000000000000000000000000000000000000000000000000000081526004018080602001828103825260138152602001807f42616e6b20616c7265616479206578697374730000000000000000000000000081525060200191505060405180910390fd5b6004600081548092919060010191905055506040518061010001604052806004548152602001600281526020016040518060400160405280600481526020017f42616e6b0000000000000000000000000000000000000000000000000000000081525081526020018473ffffffffffffffffffffffffffffffffffffffff16815260200183815260200160405180602001604052806000815250815260200160405180602001604052806000815250815260200182815250600860008573ffffffffffffffffffffffffffffffffffffffff1673ffffffffffffffffffffffffffffffffffffffff1681526020019081526020016000206000820151816000015560208201518160010155604082015181600201908051906020019061391e92919061530a565b5060608201518160030160006101000a81548173ffffffffffffffffffffffffffffffffffffffff021916908373ffffffffffffffffffffffffffffffffffffffff160217905550608082015181600401908051906020019061398292919061530a565b5060a082015181600501908051906020019061399f92919061530a565b5060c08201518160060190805190602001906139bc92919061530a565b5060e08201518160070190805190602001906139d992919061530a565b509050506040518061010001604052806004548152602001600281526020016040518060400160405280600481526020017f42616e6b0000000000000000000000000000000000000000000000000000000081525081526020018473ffffffffffffffffffffffffffffffffffffffff16815260200183815260200160405180602001604052806000815250815260200160405180602001604052806000815250815260200182815250600a6000600454815260200190815260200160002060008201518160000155602082015181600101556040820151816002019080519060200190613ac892919061530a565b5060608201518160030160006101000a81548173ffffffffffffffffffffffffffffffffffffffff021916908373ffffffffffffffffffffffffffffffffffffffff1602179055506080820151816004019080519060200190613b2c92919061530a565b5060a0820151816005019080519060200190613b4992919061530a565b5060c0820151816006019080519060200190613b6692919061530a565b5060e0820151816007019080519060200190613b8392919061530a565b50905050505050565b6000809054906101000a900473ffffffffffffffffffffffffffffffffffffffff1681565b60608590506002600860003373ffffffffffffffffffffffffffffffffffffffff1673ffffffffffffffffffffffffffffffffffffffff1681526020019081526020016000206001015414613c6e576040517f08c379a00000000000000000000000000000000000000000000000000000000081526004018080602001828103825260118152602001807f4e6f74206120626c6f6f642062616e6b2e00000000000000000000000000000081525060200191505060405180910390fd5b600081511415613d5657600860008873ffffffffffffffffffffffffffffffffffffffff1673ffffffffffffffffffffffffffffffffffffffff1681526020019081526020016000206004018054600181600116156101000203166002900480601f016020809104026020016040519081016040528092919081815260200182805460018160011615610100020316600290048015613d4e5780601f10613d2357610100808354040283529160200191613d4e565b820191906000526020600020905b815481529060010190602001808311613d3157829003601f168201915b505050505090505b6000815111613dcd576040517f08c379a00000000000000000000000000000000000000000000000000000000081526004018080602001828103825260118152602001807f506c6561736520696e707574206e616d6500000000000000000000000000000081525060200191505060405180910390fd5b6000845111613e44576040517f08c379a00000000000000000000000000000000000000000000000000000000081526004018080602001828103825260148152602001807f6572726f7220696e20626c6f6f642067726f757000000000000000000000000081525060200191505060405180910390fd5b6000825111613ebb576040517f08c379a00000000000000000000000000000000000000000000000000000000081526004018080602001828103825260178152602001807f506c6573652070726f766964652043697479206e616d6500000000000000000081525060200191505060405180910390fd5b60008811613f31576040517f08c379a000000000000000000000000000000000000000000000000000000000815260040180806020018281038252600f8152602001807f6572726f7220696e20645f64617465000000000000000000000000000000000081525060200191505060405180910390fd5b878311613fa6576040517f08c379a00000000000000000000000000000000000000000000000000000000081526004018080602001828103825260118152602001807f6572726f7220696e206578705f6461746500000000000000000000000000000081525060200191505060405180910390fd5b600073ffffffffffffffffffffffffffffffffffffffff168773ffffffffffffffffffffffffffffffffffffffff161415614049576040517f08c379a000000000000000000000000000000000000000000000000000000000815260040180806020018281038252600e8152602001807f6572726f7220696e20646f6e6f7200000000000000000000000000000000000081525060200191505060405180910390fd5b6003600081548092919060010191905055506000600860008973ffffffffffffffffffffffffffffffffffffffff1673ffffffffffffffffffffffffffffffffffffffff1681526020019081526020016000206000015414156143fb576004600081548092919060010191905055506040518061010001604052806004548152602001600181526020016040518060400160405280600581526020017f446f6e6f7200000000000000000000000000000000000000000000000000000081525081526020018873ffffffffffffffffffffffffffffffffffffffff16815260200182815260200186815260200185815260200183815250600860008973ffffffffffffffffffffffffffffffffffffffff1673ffffffffffffffffffffffffffffffffffffffff168152602001908152602001600020600082015181600001556020820151816001015560408201518160020190805190602001906141af92919061530a565b5060608201518160030160006101000a81548173ffffffffffffffffffffffffffffffffffffffff021916908373ffffffffffffffffffffffffffffffffffffffff160217905550608082015181600401908051906020019061421392919061530a565b5060a082015181600501908051906020019061423092919061530a565b5060c082015181600601908051906020019061424d92919061530a565b5060e082015181600701908051906020019061426a92919061530a565b509050506040518061010001604052806004548152602001600181526020016040518060400160405280600581526020017f446f6e6f7200000000000000000000000000000000000000000000000000000081525081526020018873ffffffffffffffffffffffffffffffffffffffff16815260200182815260200186815260200185815260200183815250600a600060045481526020019081526020016000206000820151816000015560208201518160010155604082015181600201908051906020019061433b92919061530a565b5060608201518160030160006101000a81548173ffffffffffffffffffffffffffffffffffffffff021916908373ffffffffffffffffffffffffffffffffffffffff160217905550608082015181600401908051906020019061439f92919061530a565b5060a08201518160050190805190602001906143bc92919061530a565b5060c08201518160060190805190602001906143d992919061530a565b5060e08201518160070190805190602001906143f692919061530a565b509050505b6060600860003373ffffffffffffffffffffffffffffffffffffffff1673ffffffffffffffffffffffffffffffffffffffff1681526020019081526020016000206004018054600181600116156101000203166002900480601f0160208091040260200160405190810160405280929190818152602001828054600181600116156101000203166002900480156144d35780601f106144a8576101008083540402835291602001916144d3565b820191906000526020600020905b8154815290600101906020018083116144b657829003601f168201915b505050505090506144e261523e565b60405180610160016040528060035481526020016000151581526020016000151581526020018b81526020018a73ffffffffffffffffffffffffffffffffffffffff1681526020013373ffffffffffffffffffffffffffffffffffffffff1681526020018781526020018681526020018381526020013373ffffffffffffffffffffffffffffffffffffffff168152602001600860003373ffffffffffffffffffffffffffffffffffffffff1673ffffffffffffffffffffffffffffffffffffffff1681526020019081526020016000206007018054600181600116156101000203166002900480601f01602080910402602001604051908101604052809291908181526020018280546001816001161561010002031660029004801561464a5780601f1061461f5761010080835404028352916020019161464a565b820191906000526020600020905b81548152906001019060200180831161462d57829003601f168201915b50505050508152509050806005600060035481526020019081526020016000206000820151816000015560208201518160010160006101000a81548160ff02191690831515021790555060408201518160010160016101000a81548160ff0219169083151502179055506060820151816002015560808201518160030160006101000a81548173ffffffffffffffffffffffffffffffffffffffff021916908373ffffffffffffffffffffffffffffffffffffffff16021790555060a08201518160040160006101000a81548173ffffffffffffffffffffffffffffffffffffffff021916908373ffffffffffffffffffffffffffffffffffffffff16021790555060c082015181600501908051906020019061476892919061530a565b5060e0820151816006015561010082015181600701908051906020019061479092919061530a565b506101208201518160080160006101000a81548173ffffffffffffffffffffffffffffffffffffffff021916908373ffffffffffffffffffffffffffffffffffffffff1602179055506101408201518160090190805190602001906147f692919061530a565b50905050600660008a73ffffffffffffffffffffffffffffffffffffffff1673ffffffffffffffffffffffffffffffffffffffff168152602001908152602001600020816000015190806001815401808255809150509060018203906000526020600020016000909192909190915055507f0c535c8da6e77b95970bf09ec33604331b1ffc56c34733ae0a9122d8e55443a46003546000808d8d338c8c8a33600860003373ffffffffffffffffffffffffffffffffffffffff1673ffffffffffffffffffffffffffffffffffffffff168152602001908152602001600020600701604051808c81526020018b1515151581526020018a1515151581526020018981526020018873ffffffffffffffffffffffffffffffffffffffff1673ffffffffffffffffffffffffffffffffffffffff1681526020018773ffffffffffffffffffffffffffffffffffffffff1673ffffffffffffffffffffffffffffffffffffffff16815260200180602001868152602001806020018573ffffffffffffffffffffffffffffffffffffffff1673ffffffffffffffffffffffffffffffffffffffff16815260200180602001848103845289818151815260200191508051906020019080838360005b838110156149db5780820151818401526020810190506149c0565b50505050905090810190601f168015614a085780820380516001836020036101000a031916815260200191505b50848103835287818151815260200191508051906020019080838360005b83811015614a41578082015181840152602081019050614a26565b50505050905090810190601f168015614a6e5780820380516001836020036101000a031916815260200191505b50848103825285818154600181600116156101000203166002900481526020019150805460018160011615610100020316600290048015614af05780601f10614ac557610100808354040283529160200191614af0565b820191906000526020600020905b815481529060010190602001808311614ad357829003601f168201915b50509e50505050505050505050505050505060405180910390a150505050505050505050565b6000809054906101000a900473ffffffffffffffffffffffffffffffffffffffff1673ffffffffffffffffffffffffffffffffffffffff163373ffffffffffffffffffffffffffffffffffffffff1614614bd8576040517f08c379a000000000000000000000000000000000000000000000000000000000815260040180806020018281038252600c8152602001807f4e6f7420616e2061646d696e000000000000000000000000000000000000000081525060200191505060405180910390fd5b600073ffffffffffffffffffffffffffffffffffffffff168373ffffffffffffffffffffffffffffffffffffffff161415614c7b576040517f08c379a000000000000000000000000000000000000000000000000000000000815260040180806020018281038252600f8152602001807f4e6f20686f73702061646472657373000000000000000000000000000000000081525060200191505060405180910390fd5b6000825111614cf2576040517f08c379a000000000000000000000000000000000000000000000000000000000815260040180806020018281038252601b8152602001807f506c6573652070726f7669646520486f73706974616c206e616d65000000000081525060200191505060405180910390fd5b6000815111614d69576040517f08c379a00000000000000000000000000000000000000000000000000000000081526004018080602001828103825260178152602001807f506c6573652070726f766964652043697479206e616d6500000000000000000081525060200191505060405180910390fd5b6003600860008573ffffffffffffffffffffffffffffffffffffffff1673ffffffffffffffffffffffffffffffffffffffff168152602001908152602001600020600101541415614e22576040517f08c379a00000000000000000000000000000000000000000000000000000000081526004018080602001828103825260178152602001807f486f73706974616c20416c72656164792065786973747300000000000000000081525060200191505060405180910390fd5b6004600081548092919060010191905055506040518061010001604052806004548152602001600381526020016040518060400160405280600881526020017f486f73706974616c00000000000000000000000000000000000000000000000081525081526020018473ffffffffffffffffffffffffffffffffffffffff16815260200183815260200160405180602001604052806000815250815260200160405180602001604052806000815250815260200182815250600860008573ffffffffffffffffffffffffffffffffffffffff1673ffffffffffffffffffffffffffffffffffffffff16815260200190815260200160002060008201518160000155602082015181600101556040820151816002019080519060200190614f4992919061530a565b5060608201518160030160006101000a81548173ffffffffffffffffffffffffffffffffffffffff021916908373ffffffffffffffffffffffffffffffffffffffff1602179055506080820151816004019080519060200190614fad92919061530a565b5060a0820151816005019080519060200190614fca92919061530a565b5060c0820151816006019080519060200190614fe792919061530a565b5060e082015181600701908051906020019061500492919061530a565b509050506040518061010001604052806004548152602001600381526020016040518060400160405280600881526020017f486f73706974616c00000000000000000000000000000000000000000000000081525081526020018473ffffffffffffffffffffffffffffffffffffffff16815260200183815260200160405180602001604052806000815250815260200160405180602001604052806000815250815260200182815250600a60006004548152602001908152602001600020600082015181600001556020820151816001015560408201518160020190805190602001906150f392919061530a565b5060608201518160030160006101000a81548173ffffffffffffffffffffffffffffffffffffffff021916908373ffffffffffffffffffffffffffffffffffffffff160217905550608082015181600401908051906020019061515792919061530a565b5060a082015181600501908051906020019061517492919061530a565b5060c082015181600601908051906020019061519192919061530a565b5060e08201518160070190805190602001906151ae92919061530a565b50905050505050565b828054600181600116156101000203166002900490600052602060002090601f016020900481019282601f106151f0578054855561522d565b8280016001018555821561522d57600052602060002091601f016020900482015b8281111561522c578254825591600101919060010190615211565b5b50905061523a919061538a565b5090565b6040518061016001604052806000815260200160001515815260200160001515815260200160008152602001600073ffffffffffffffffffffffffffffffffffffffff168152602001600073ffffffffffffffffffffffffffffffffffffffff168152602001606081526020016000815260200160608152602001600073ffffffffffffffffffffffffffffffffffffffff168152602001606081525090565b81548183558181111561530557818360005260206000209182019101615304919061538a565b5b505050565b828054600181600116156101000203166002900490600052602060002090601f016020900481019282601f1061534b57805160ff1916838001178555615379565b82800160010185558215615379579182015b8281111561537857825182559160200191906001019061535d565b5b509050615386919061538a565b5090565b6153ac91905b808211156153a8576000816000905550600101615390565b5090565b9056fe556e617574686f72697a6564207472616e73616374696f6e206f726967696e61746f72a265627a7a723158202f7ba35846555d42e2223b8a55e915361379a80fde98cff4007b25fcbc230cd264736f6c63430005100032",
  "source": "pragma solidity >=0.4.21 <0.6.0;\n\n// contract DateTime {\n//         function getYear(uint timestamp) public returns (uint16);\n//         function getMonth(uint timestamp) public returns (uint8);\n//         function getDay(uint timestamp) public returns (uint8);\n// }\n// hello world how are you\ncontract Blood{\n    // uint public today;\n    // address public dateTimeAddr = 0x66eDEfff0A0c87bA4ca2b8E73BB05787eb35908E;\n    address payable public admin = address(0x74B6aCeBA25a317cBb21E46146693A139332A7c6);\n    address payable public hospi = address(0x519656B8a37D2C6F5B8022fEF151f6a4e871b9ce);\n    // DateTime dateTime = DateTime(dateTimeAddr);\n    string public name;\n    uint public bagCount = 0;\n    uint public userCount = 0;\n    mapping(uint => Bloodbag) public bloodbags; // This is the general list of bloodbags.\n    mapping(address => uint[]) public donors; // Bloodbags corresponding to donors stored here.\n    mapping(address => uint[]) public hospitals; // Bloodbags corresponding to hospitals stored here.\n    mapping(address => User) public usertype; // This mapping is to identify the type of user using the website, i.e\n                                              // (1 = donor, 2 = bank and 3 = hospital)\n    mapping(address => uint[]) public notification; // Stores pending notification for used bags of donors\n    mapping(uint => User) public users; // List of all users\n\n    function getDbags(address payable _donor) public view returns (uint256[] memory) {\n        return donors[_donor];\n    }\n\n    function getNotification(address payable _donor) public view returns (uint256[] memory) {\n        return notification[_donor];\n    }\n\n    function getHbags(address payable _hospital) public view returns (uint256[] memory) {\n        return hospitals[_hospital];\n    }\n\n\n    // ALL STRUCTS\n\n    struct User {\n        uint id;\n        uint user_type;\n        string user;\n        address payable user_address;\n        string name;\n        string number;\n        string blood_group;\n        string city;\n    }\n\n    struct Bloodbag {\n        uint id;\n        bool used;\n        bool expired;\n        uint donation_date;\n        address payable donor;\n        address payable bank;\n        string blood_group;\n        uint expiry;\n        string owner_name;\n        address payable owner;\n        string city;\n    }\n\n    // ALL STRUCTS END\n\n    event BagCreated(\n        uint id,\n        bool used,\n        bool expired,\n        uint donation_date,\n        address payable donor,\n        address payable bank,\n        string blood_group,\n        uint expiry,\n        string owner_name,\n        address payable owner,\n        string city\n    );\n\n    event message(string message);\n    event arr(uint[] array);\n\n    event bagPurchased(\n        uint id,\n        bool used,\n        bool expired,\n        uint donation_date,\n        address payable donor,\n        address payable bank,\n        string blood_group,\n        uint expiry,\n        string owner_name,\n        address payable owner,\n        string city\n    );\n\n    event expBag(\n        uint id,\n        bool used,\n        bool expired,\n        uint donation_date,\n        address payable donor,\n        address payable bank,\n        string blood_group,\n        uint expiry,\n        string owner_name,\n        address payable owner,\n        string city\n    );\n\n    constructor() public{\n        name = \"Pranav Gor\";\n        userCount ++;\n        usertype[admin] = User(userCount, 14, \"Admin\", admin, \"Muhammad Aamir Khan\", '', '', \"Dera Ismail Khan\");\n        users[userCount] = User(userCount, 14, \"Admin\", admin, \"Muhammad Aamir Khan\", '', '', \"Dera Ismail Khan\");\n    }\n\n    function createBloodbag(uint _donation_date, address payable _donor, string memory _donor_name,\n     string memory _donor_number, string memory _blood_group, uint _expiry, string memory _city) public {\n        // Require valid params\n        string memory d_name = _donor_name;\n        require(usertype[msg.sender].user_type == 2, \"Not a blood bank.\");\n        if(bytes(d_name).length == 0){\n            d_name = usertype[_donor].name;\n        }\n        require(bytes(d_name).length > 0, \"Please input name\");\n        require(bytes(_blood_group).length > 0, \"error in blood group\");\n        require(bytes(_city).length > 0, \"Plese provide City name\");\n        require(_donation_date > 0, \"error in d_date\");\n        require(_expiry > _donation_date, \"error in exp_date\");\n        require(_donor != address(0), \"error in donor\");\n        // Increment bag count\n        bagCount ++;\n        // Date related stuff\n        // Add donor and set type = 1 if not already exists.\n        if (usertype[_donor].id == 0){\n            userCount++;\n            usertype[_donor] = User(userCount, 1, \"Donor\", _donor, d_name,_donor_number, _blood_group, _city);\n            users[userCount] = User(userCount, 1, \"Donor\", _donor, d_name, _donor_number, _blood_group, _city);\n        }\n        // Create the Blood bag\n        string memory _owner_name = usertype[msg.sender].name;\n        Bloodbag memory temp_bloodbag = Bloodbag(bagCount, false, false, _donation_date, _donor, msg.sender, _blood_group, _expiry,\n        _owner_name, msg.sender, usertype[msg.sender].city);\n        bloodbags[bagCount] = temp_bloodbag;\n        // add bag to specific donor's list\n        donors[_donor].push(temp_bloodbag.id);\n        // Trigger an event\n        emit BagCreated(bagCount, false, false, _donation_date, _donor, msg.sender, _blood_group, _expiry,\n        _owner_name, msg.sender, usertype[msg.sender].city);\n    }\n\n    function createBank(address payable _bank, string memory _name, string memory _city) public {\n        require(msg.sender == admin,\"Not an admin\");\n        require(_bank != address(0),\"No bank address\");\n        require(bytes(_name).length > 0, \"Plese provide Bank name\");\n        require(bytes(_city).length > 0, \"Plese provide City name\");\n        require(usertype[_bank].user_type != 2,\"Bank already exists\");\n        userCount++;\n        usertype[_bank] = User(userCount, 2, \"Bank\",_bank, _name, '', '', _city);\n        users[userCount] = User(userCount, 2, \"Bank\",_bank, _name, '', '', _city);\n    }\n\n    function createHosp(address payable _hosp, string memory _name, string memory _city) public {\n        require(msg.sender == admin,\"Not an admin\");\n        require(_hosp != address(0),\"No hosp address\");\n        require(bytes(_name).length > 0, \"Plese provide Hospital name\");\n        require(bytes(_city).length > 0, \"Plese provide City name\");\n        require(usertype[_hosp].user_type != 3,\"Hospital Already exists\");\n        userCount++;\n        usertype[_hosp] = User(userCount, 3, \"Hospital\",_hosp, _name, '', '', _city);\n        users[userCount] = User(userCount, 3, \"Hospital\", _hosp, _name, '', '', _city);\n    }\n\n    function h_placeOrder(uint bag_id) public payable {\n        // Fetch the owner\n        address payable _seller = bloodbags[bag_id].owner;\n        bool used = bloodbags[bag_id].used;\n        bool expired = bloodbags[bag_id].expired;\n        require(msg.value > 1, 'Wrong price paid');\n        require(usertype[msg.sender].user_type == 3, 'Unauthorized transaction originator');\n        address(_seller).transfer(msg.value);\n        //Transfer ownership\n        bloodbags[bag_id].owner = msg.sender;\n        bloodbags[bag_id].owner_name = usertype[msg.sender].name;\n        bloodbags[bag_id].city = usertype[msg.sender].city;\n        Bloodbag memory _bloodbag = bloodbags[bag_id];\n        hospitals[msg.sender].push(_bloodbag.id);\n        emit bagPurchased(_bloodbag.id, used, expired, _bloodbag.donation_date, _bloodbag.donor, _bloodbag.bank,\n         _bloodbag.blood_group,_bloodbag.expiry,_bloodbag.owner_name,_bloodbag.owner, _bloodbag.city);\n    }\n\n    function useBag(uint bag_id) public {\n        require(usertype[msg.sender].user_type == 3, 'Unauthorized transaction originator');\n        bloodbags[bag_id].used = true;\n        bloodbags[bag_id].expired = false;\n        address donor = bloodbags[bag_id].donor;\n        notification[donor].push(bag_id);\n    }\n\n    function gotIt() public {\n        require(usertype[msg.sender].user_type == 1, 'Unauthorized transaction originator');\n        notification[msg.sender].length = 0;\n    }\n\n    function expiredBag(uint[] memory ids, uint s) public returns (uint) {\n        require(usertype[msg.sender].user_type == 14, 'Unauthorized transaction originator');\n        require(s != 0, 'No Expired bags');\n        Bloodbag memory _bloodbag;\n        for(uint i = 0; i < s; i++) {\n            bloodbags[ids[i]].expired = true;\n            bloodbags[ids[i]].used = false;\n            _bloodbag = bloodbags[ids[i]];\n            emit expBag(_bloodbag.id, _bloodbag.used, _bloodbag.expired, _bloodbag.donation_date, _bloodbag.donor, _bloodbag.bank,\n            _bloodbag.blood_group,_bloodbag.expiry,_bloodbag.owner_name,_bloodbag.owner, _bloodbag.city);\n        }\n        return s;\n    }\n}\n",
  "sourcePath": "/home/devcave/Aamir-drive/FYP/src/contracts/Blood.sol",
  "compiler": {
    "name": "solc",
    "version": "0.5.16+commit.9c3226ce.Emscripten.clang"
  },
  "schemaVersion": "3.4.10",
  "updatedAt": "2022-12-09T03:20:14.320Z",
  "networkType": "ethereum",
  "devdoc": {
    "methods": {}
  },
  "userdoc": {
    "methods": {}
  }
}